:0200000080334B
:10003500D290D291D292D293D294D295D296D2978F
:10004500C2A0C2A1C2A2C2A3759080E590B48803E4
:1000550075A000B4840375A001B4820375A002B431
:1000650050EB75A003759040E590B4480375A00466
:10007500B4440375A005B4420375A006B428EB7516
:10008500A007759020E590B4280375A008B4240353
:1000950075A009B4220375A00AB414EB75A00B75FD
:1000A5009000E590B4080375A00CB4040375A00D89
:0C00B500B4020375A00EB400EB75A00FA0
:00000001FF
